:020000040000FA
:060000000A128A110C280F
:10000800FE00030EF0000A08F1000A128A112228E5
:100018000A128A110F28F701F801F901FA01FB0108
:1000280083120313A001A101A201A301A401A50148
:10003800A601A70183010A128A115B280B1D252836
:1000480026285428013083120313A0070030031810
:100058000130A107003003180130A207003003184F
:100068000130A3070B1106308100D030200607307D
:100078000319210622042304031D43284428542875
:10008800003083120313A3000030A2000030A10047
:100098000030A0000130F9070318FA0A0030FA0707
:1000A80071088A00700E8300FE0E7E0E090083160A
:1000B8000317880189018316031306138617861010
:1000C800061086118717071330308C000A128A1120
:1000D80050210A128A110A128A118C200A128A11D6
:1000E8007308F8007208F7008312031386100A12C7
:1000F8008A11B5200A128A118312031386110A1273
:100108008A11DB200A128A116A280A128A110C281D
:10011800F501F6018312031306170D30F400F40BF2
:1001280093288312031306130610861F9C289D2804
:100138009928AB280130F5070318F60A0030F607AE
:100148004D30F400F40BA628831203130614861B03
:10015800AE28AF289E2806107608F3007508F2002E
:1001680008007808831203132702031DBD287708A7
:100178002602031CC028C128D8280A128A11AF21D8
:100188000A128A11C82886147A08831203132502D2
:10019800031DD028790824020318D328D428C72897
:1001A800F901FA018B12D9288610861008000A1264
:1001B8008A1192210A128A1161300A128A11A32126
:1001C8000A128A110B3083120313AA002630A900E1
:1001D8005D30A800A80BEE28A90BEE28AA0BEE2884
:1001E8000E300A128A11FB200A128A110800F40044
:1001F8000D29740884000A128A1138210A128A11FA
:100208000A128A11A3210A128A110130F300730815
:10021800F407740884000A128A1138210A128A1114
:10022800003A031D18291929FD2808009630F20004
:100238000030F3000A128A117C210A128A11053053
:10024800F2000030F3000A128A1166210A128A119C
:10025800A530F5007508F200F301FF300A128A1183
:10026800C4210A128A11080001308A000408840A8D
:10027800820700347334613476346534203463344F
:100288006F346E34663469346734733400346434DC
:1002980066346634663400340A128A11BA210A12A6
:1002A8008A11313A031D59295A2965290A128A11D6
:1002B8001A210A128A1101300A128A11FB200A1225
:1002C8008A1108007208730403196B296C297B29A9
:1002D800003073021030031972020318742975294B
:1002E8007B29730883120313A5007208A400080071
:1002F8007208730403198129822991290130730234
:1003080091300319720203188A298B2991297308DD
:1003180083120313A7007208A600080083160313AC
:10032800871707132630980090308312031398001C
:100338006730831603139900C0308B000800F20061
:1003480083160313981CA929AA29A42972088312C1
:1003580003139900080082308316031381000630C6
:10036800831203138100A0308B000800831203134B
:100378008C1EBF29C029C2291A08C32900300800C9
:0203880008006B
:04400E00F22FFF3F4F
:00000001FF
