:020000040000FA
:060000000A128A11122809
:10000800FE00030EF2000408F3000A08F40083124D
:1000180003137F08F5000A128A11C82A0A128A11E6
:1000280015288317B330FD000630FE001530FF0099
:10003800903084000A128A1109270A128A11831340
:10004800D530FD000730FE001830FF00C3308400B3
:100058000A128A1109270A128A116530FD00073031
:10006800FE002A30FF00553084000A128A11092741
:100078000A128A11A0308400C3300A128A11742728
:100088000A128A114530840055300A128A117427E1
:100098000A128A11F601F701F801F901FA01830140
:1000A8000A128A11C32983120313C1002D30FF00DD
:1000B8007F08BD000F2925304206031964286528EA
:1000C80071284208FF00410884007F0883138000DC
:1000D8000130FF007F08C1070F29BC017828C03014
:1000E800FF007F08BC0492280130AC07FF302C07C2
:1000F80084000A128A1140230A128A11C200B90028
:10010800BA013A08003A03198A280F293908003A2F
:1001180003192129753A031973280F293D0884000A
:1001280083130008BE00840A0008BF000230FF00E5
:100138007F08BD07C201C20A4208B9003907013E5B
:1001480084000A128A1140230A128A11BA000A127C
:100158008A1140230A128A11BB003B083F02031D83
:10016800B7283A083E020318BA28BB28BC28C62874
:100178000130FF007F08C20705304206031DC5286D
:10018800C628A0284208FF007F08C00006290A30B8
:10019800A7000030A8004008B9003907013E8400D4
:1001A8000A128A1140230A128A11A0000A128A111F
:1001B80040230A128A11A1003F08A3003E08A200AA
:1001C8000A128A110A250A128A11831203132108B6
:1001D800AA002008A9000A128A1150250A128A11B9
:1001E800831203132708303EFF007F08C20042082D
:1001F800FF00410884007F08831380000130FF005E
:100208007F08C107FF30FF007F08C007400A031DB1
:100218000E290F29CB280130AC07FF302C078400AA
:100228000A128A1140230A128A11FF007F08C200AD
:100238004208031D202921295F28410884008313CF
:100248008001080083120313AA01A31F2C292D295A
:100258003A29A009A109A209A309A00A0319A10A18
:100268000319A20A0319A30AAA01AA0AA71F3D296A
:100278003E294D29A409A509A609A709A40A031915
:10028800A50A0319A60A0319A70A0130FF007F0867
:10029800AA060030AE000030AD000030AC000030DF
:1002A800AB00230822042104200403195C295D29DA
:1002B800AA29A901A90A6D290130A8000310A00DD7
:1002C800A10DA20DA30DA80B62290130FF007F0824
:1002D800A907A31F7029712960290130A8000310FC
:1002E800AB0DAC0DAD0DAE0DA80B7329230827027D
:1002F800031D882922082602031D882921082502B2
:10030800031D882920082402031C8B298C299B297A
:100318002008A4022108031C210FA5022208031C9F
:10032800220FA6022308031C230FA7022B14013057
:100338000310A30CA20CA10CA00CFF3E031D9C29CA
:100348000130A902031DA929AA2971292A0803191C
:10035800AE29AF29BA29AB09AC09AD09AE09AB0A78
:100368000319AC0A0319AD0A0319AE0A2E08A30033
:100378002D08A2002C08A1002B08A00008000A12D2
:100388008A116B270A128A11003083120313B200F4
:100398007A30B1001230B0000030AF000030B60043
:1003A8000030B5002530B4008030B3000A128A113D
:1003B80058220A128A11003083120313A000A100E8
:1003C8002330A2000030A300A0300A128A115B2655
:1003D8000A128A11823083120313C400DD30C3006D
:1003E800C30BF429C40BF429503083120313A10062
:1003F8008030A2000A128A11C6250A128A113230E8
:100408000A128A11BC260A128A11FF007F08831279
:100418000313CE007F304E06031D132A142A1A2A0E
:100428000A128A1108240A128A111F2A0A128A112A
:1004380066240A128A11831203134F03031D252A07
:10044800262A1F2A0030A000A1002330A200003075
:10045800A300A0300A128A115B260A128A113630CC
:10046800FF007F0883120313AC00A0300A128A1120
:1004780057200A128A1183120313D001CF018C125C
:1004880018168B17A030A1000030A2000A128A119A
:10049800C6250A128A110A128A1156270A128A11C7
:1004A8001F2A0A128A111228831203133308B7006D
:1004B8003408B8003508B9003608BA00043003100B
:1004C800B70DB80DB90DBA0DFF3E031D632A3A08E2
:1004D800A3003908A2003808A1003708A000330893
:1004E800BB003408BC003508BD003608BE00043027
:1004F8000310BB0DBC0DBD0DBE0DFF3E031D7C2AB8
:100508002F08BF003008C0003108C1003208C200FF
:100518003B08BF023C08031C3C0F932A942AC002E4
:100528003D08031C3D0F992A9A2AC1023E08031C64
:100538003E0F9F2AA02AC2024208A7004108A6002F
:100548004008A5003F08A4000A128A1126210A12B1
:100558008A11831203132108E6002008E500831698
:100568000313871707139801831203139801263082
:1005780083160313980090308312031398006508BC
:1005880083160313990008000B1DCB2ACC2AED2AE9
:1005980081010130FF007F08F9074B307906031D00
:1005A800D62AD72AEA2AF9010130FF007F08FA077C
:1005B8007A08F000F10148087106031DE52A47088A
:1005C8007006031DE82AE92AEA2A7B10E0308B002E
:1005D8002B2B8C1EF02AF12A2B2B1A08FF0050080F
:1005E800A03E84007F088313800004305002031C5F
:1005F800FE2AFF2A1E2B5008A03E84007A300006EF
:10060800031D072B082B1E2B50089F3E84007A30B1
:100618000006031D102B112B1E2B50089E3E840034
:100628007A300006031D192B1A2B1E2BCF01CF0A77
:1006380018128B130130FF007F08D0071E305002BC
:10064800031C272B282B2A2BCF01D0018C127508CD
:10065800FF0074088A0073088400720E8300FE0E7F
:100668007E0E0900FF1B402B83137F188317000899
:10067800840A0319FF0A080003308A000408840A60
:1006880082070034013400340A34003464340034FE
:10069800E83403341034273469343A3420342534A8
:1006A80075342C34203464343A3420342534753489
:1006B8002C34203474343A342034253475342C34B2
:1006C800203472343A342034253475342C342034B0
:1006D80067343A342034253475342C342034623469
:1006E8003A342034253475340D340A3400346534F2
:1006F80073347434653420346534733420346D3481
:1007080069342034703469346E346334683469343D
:1007180020346D3465346E34733461346A3465342E
:10072800003449344E3449344334493441344E3426
:1007380044344F34003483120313AB01A71FA52B95
:10074800A62BAD2BA609A709A60A0319A70AAB0170
:10075800AB0AA91FB02BB12BBA2BA809A909A80A63
:100768000319A90A0130FF007F08AB06AC01AD01EF
:10077800260827040319C12BC22BF92BAA01AA0AA0
:10078800D02B01300310A60DA70DFF3E031DC62B6D
:100798000130FF007F08AA07A71FD32BD42BC52B36
:1007A80001300310AC0DAD0DFF3E031DD52B2708FE
:1007B8002902031DE12B26082802031CE42BE52B44
:1007C800EC2B2608A8022708031CA903A9022C144D
:1007D80001300310A70CA60CFF3E031DED2B0130C2
:1007E800AA02031DF82BF92BD42B2B080319FD2B78
:1007F800FE2B032CAC09AD09AC0A0319AD0A2D0870
:10080800A7002C08A600080033300A128A11BC265B
:100818000A128A11FF007F0883120313E30063089A
:10082800B300B4013308A0003408A1000A128A11E9
:10083800EF260A128A1134300A128A11BC260A12CB
:100848008A11FF007F0883120313E4006408B300D1
:10085800B4013308A0003408A1000A128A11D9266D
:100868000A128A1135300A128A11BC260A128A1114
:10087800FF007F0883120313D40036300A128A114E
:10088800BC260A128A11FF007F0883120313D300C3
:1008980037300A128A11BC260A128A11FF007F0813
:1008A80083120313D2005308FF007F08AE005208DA
:1008B800FF007F08AF0054080A128A118C250A121B
:1008C8008A1108009630FF007F0883120313E300A3
:1008D8006308B300B4013308A0003408A1000A1269
:1008E8008A11EF260A128A110530FF007F08831249
:1008F8000313E4006408B300B4013308A00034080B
:10090800A1000A128A11D9260A128A11FF30FF00A3
:100918007F0883120313D400D301FF30FF007F0840
:10092800D2006308FF007F08A4006408FF007F0866
:10093800A5005408FF007F08A6005308FF007F08A1
:10094800A7005208FF007F08A8007F300A128A110A
:10095800C0240A128A11831203135308FF007F0868
:10096800AE005208FF007F08AF0054080A128A112F
:100978008C250A128A11080083120313A90029087A
:10098800FF007F08A00032300A128A1138260A12A6
:100998008A11831203132408FF007F08A000333054
:1009A8000A128A1138260A128A118312031325089B
:1009B800FF007F08A00034300A128A1138260A1274
:1009C8008A11831203132608FF007F08A000353020
:1009D8000A128A1138260A128A1183120313270869
:1009E800FF007F08A00036300A128A1138260A1242
:1009F8008A11831203132808FF007F08A0003730EC
:100A08000A128A1138260A128A110800831203135F
:100A1800A501A601200821040319132D142D4B2D1F
:100A2800A401A40A222D01300310A00DA10DFF3E40
:100A3800031D182D0130FF007F08A407A11F252DD5
:100A4800262D172D01300310A50DA60DFF3E031D01
:100A5800272D21082302031D332D20082202031C01
:100A6800362D372D3E2D2008A2022108031CA30392
:100A7800A302251401300310A10CA00CFF3E031D96
:100A88003F2D0130A402031D4A2D4B2D262D26088B
:100A9800A1002508A00008008312031327082804D2
:100AA8000319572D582D872DAB01AB0A662D013040
:100AB8000310A70DA80DFF3E031D5C2D0130FF009C
:100AC8007F08AB07A81F692D6A2D5B2D28082A020D
:100AD800031D702D27082902031C732D742D7A2DF0
:100AE8002708A9022808031CAA03AA020130031038
:100AF800A80CA70CFF3E031D7B2D0130AB02031D84
:100B0800862D872D6A2D2A08A8002908A700080025
:100B180083120313B2003209FF007F08D4002E09A4
:100B2800FF007F08D3002F09FF007F08D200FF30A5
:100B3800A6000030A7005408B000B1013008A0009A
:100B48003108A1005A30A2000030A3000A128A110D
:100B5800EE250A128A11831203132108A90020081E
:100B6800A8000A128A119F230A128A1183120313FA
:100B78002608FF007F08D40054085A3CFF007F086D
:100B8800D1000800DD2D2208FF00210884000A1288
:100B98008A1136230A128A110A128A114A270A125E
:100BA8008A11013083120313A1070318A20A003027
:100BB800A207831203132208FF00210884000A12E7
:100BC8008A1136230A128A11003A031DEC2DED2DE5
:100BD800C72D080083120313A401A501201CF52DBD
:100BE800F62DFC2D2208A4070318A50A2308A5073B
:100BF80001300310A20DA30DFF3E031DFD2D013092
:100C08000310A10CA00CFF3E031D042E2008210494
:100C1800031D0F2E102EF22D2508A1002408A00078
:100C2800080043346F346E3466346934673475347D
:100C380072346134633469346F346E34203464340C
:100C48006534203470346134723461346D34653401
:100C5800743472346F34733420346C3469347334BC
:100C6800743461340D34003483120313A300230851
:100C7800831203178D0083120313200883120317AE
:100C88008C00831603178C130C158B1355308D00AD
:100C9800AA308D008C148B17823083120313A200A4
:100CA800DD30A100A10B562EA20B562E0800831290
:100CB8000313A5002508FF007F08A4006E2E200856
:100CC800FF00240884007F08831380000130FF00A0
:100CD8007F08A4070130A2020030031CA303A3026B
:100CE800220A031D7B2E230A031D7B2E7C2E632ED6
:100CF80008009A2E831203130714F801872E013077
:100D0800FF007F08F80754087802031C8C2E8D2EEC
:100D1800832E0710F801942E0130FF007F08F80792
:100D280051087802031C992E9A2E902E7B189D2E1E
:100D38009E2E7E2E080083160317880189018030B5
:100D48008316031386008030870030308C008312AE
:100D580003138C01C0308B0086010730870083168F
:100D68000313880101308312031388007B140800E1
:100D780083120313A2002208831203178D0083161F
:100D880003178C130C14831203170C08FF007F0839
:100D9800F600823083120313A100DD30A000A00BFF
:100DA800D32EA10BD32E7608080083120313200834
:100DB80021040319E02EE12EEE2E0030210210301E
:100DC800031920020318E92EEA2EEE2E2108C80086
:100DD8002008C70008008312031320082104031900
:100DE800F62EF72E042F013021029130031920022C
:100DF8000318FF2E002F042F2108CA002008C9005D
:100E080008007E088A007F0882000A128A110527D6
:100E18000A128A118000840A04087D060319003426
:100E2800FF0A0319FE0A092F4434653470346C3400
:100E38006F347934203453347934733474346534EA
:100E48006D342E342E342E340D3400345034723434
:100E5800753465346234613420346C3469347334E5
:100E6800743461340D340034643403340A128A1142
:100E780061270A128A110C30831203139700520853
:100E880095000C309D0053089B0008008312031343
:100E9800A0002008990083160313981C542F552F7F
:100EA8004F2F08000A128A113A270A128A110A12C9
:100EB8008A117D260A128A1108000530831203134D
:100EC80092009101FF3083160313920008008316E5
:100ED80003130F100A128A119F260A128A1108009A
:100EE80064008001840A0406031900340406752F7F
:04400E00D220FF3F7E
:00000001FF
